:0E0C9A0048656C6C6F20524F424F434F4E0026
:100987007BFF7A0C799A1208E3120C651209ED8F36
:1009970048E548B404F6E4F51EF51FD3E51F952195
:1009A700E5206480F8E51E648098502BE51F240A33
:1009B700FF120B2C751C008F1DE51F240BFF120B5C
:1009C7002CEFFEEE421C7408251FF8A61D051FE537
:1009D7001F70C8051E80C47B007A0079087D017FDF
:0609E70002120BA980A61C
:100C79005772697465204F4B0020202020202020C6
:020C8900200049
:0608E3008B228A23892408
:1008E900120C508E298F2AE4F525F526D3E5269595
:1008F9002AE5296480F8E525648098505DAB22AA31
:1009090023A924852682852583120800FF3395E0D3
:10091900F5278F28E526240AFFC007AE27AF287CD4
:10092900017D00120894D007120B857F057E001205
:100939000C3BAE27AF287C017D00120894AC06ADB4
:1009490007E526240BFF120B857F057E00120C3B61
:100959000526E5267096052580927BFF7A0C797924
:100969007D017F02120BA97FD07E07120C3B7BFF12
:0D0979007A0C79827D017F02120BA9AF2A52
:01098600224E
:100B85008F2B8C2C8D2D120CDE7F10120B5C120C12
:100B9500A8AF2B120B5C120CA8AF2D120B5C120C1C
:040BA500A8020CE7AF
:020B2C008F2216
:100B2E00120CDE7F10120B5C120CA8AF22120B5CA3
:100B3E00120CA8120CDE7F11120B5C120CA8120BF9
:0D0B4E00EA8F237F01120CD4120CE7AF23B5
:010B5B002277
:060C8B00C2A58F80D2A774
:080C91007F027EEFDEFEDFFCB6
:010C99002238
:0A0CC000C2A6120C8BC2A7020C9111
:100BCC00CFCDCFCECCCE12083F7C007D0A12083F91
:040BDC00ED2430FFD5
:0A0BE000D2A6120C8BC2A7020C91E2
:100C2500AE07BE0104ED148006BE0209ED243F4463
:060C350080FF120CC0223A
:100C65007F38120CC07F0C120CC07F06120CC07F9F
:040C750001020CC0AC
:0A0CCA00AC03120C25AF04020BE08E
:060BA9008B2B8A2C892D24
:100BAF00120C25E4FDAB2BAA2CA92D8D8275830089
:0C0BBF00120800FF6006120BE00D80E938
:010BCB002207
:0C0AF9007F0AEA24FFFDE434FFFC7E00CD
:080B05008E448F458C468D479C
:100B0D007F017E00E4FBEBC39547E5466480F874F6
:0E0B1D008098500AAC44AD4512082D0B80E8BC
:010B2B0022A7
:040C08008A378B3864
:100C0C00120C25AA39EAD39400400D120AF9AC371C
:080C1C00AD38120BCC1A80ED7B
:010C240022AD
:100A4E00120C25C3EA64809480400B7F2B120BE0BE
:100A5E008A338B34800E7F2D120BE0C3E49BF5346A
:100A6E00E49AF533AA32EAD39400400D120AF9AC97
:090A7E0033AD34120BCC1A80EDEB
:010A8700224C
:040A88008A3C8B3DDC
:100A8C00120C25AA3EEAD3940040297F10120AFBCF
:100A9C00AC3CAD3DCFCDCFCECCCE12083FEF540FFA
:100AAC00FEC3940AEE5004243080022437FF120B4C
:040ABC00E01A80D1EB
:010AC0002213
:040AC1008A418B4299
:100AC500120C25AA43EAD394004028EA24FFFDE44A
:100AD50034FFFC7F027E00120B05AC41AD42CFCD49
:100AE500CFCECCCE12083FEF54012430FF120BE0DD
:030AF5001A80D292
:010AF80022DB
:100C3B00EF1FAC0670011E4C600A7D027CEFDCFEE0
:040C4B00DDFC80EC60
:010C4F002282
:090CDE00D291D290C291C2902281
:070CE700C291D290D29122CC
:020B5C00AD07E3
:100B5E00E4FB74807E00A803088006CEA2E713CEC5
:100B6E0013D8F8FFEDF582EF558224FF9291D290C3
:060B7E00C2900BBB08DC75
:010B8400224E
:100BEA00E4FFD291FED29030910D7480A80608805D
:0D0BFA0002C313D8FC4207C2900EBE08E8EB
:010C070022CA
:0A0CD400EF24FF9291D290C290220B
:0B0CA800D291D290A291E433FFC290E1
:010CB300221E
:1009ED00E4F52220B1137F14FE120C3B30B1FD7FD4
:1009FD00147E00120C3B75220120B0147F147E0072
:100A0D00120C3B30B0FD7F147E00120C3B752202A0
:100A1D0020B2147F147E00120C3B30B2FD7F147E89
:100A2D0000120C3B75220320B3147F147E00120CB0
:100A3D003B30B3FD7F147E00120C3B752204AF22B8
:010A4D002286
:03000000020CB43B
:0C0CB400787FE4F6D8FD758148020987BE
:10080000BB010CE58229F582E5833AF583E02250AD
:1008100006E92582F8E622BBFE06E92582F8E222F7
:0D082000E58229F582E5833AF583E4932211
:10082D00EF8DF0A4A8F0CF8CF0A428CE8DF0A42EDF
:02083D00FE2299
:10083F00BC000BBE0029EF8DF084FFADF022E4CC9D
:10084F00F875F008EF2FFFEE33FEEC33FCEE9DEC66
:10085F00984005FCEE9DFE0FD5F0E9E4CEFD22EDAC
:10086F00F8F5F0EE8420D21CFEADF075F008EF2FF6
:10087F00FFED33FD4007985006D5F0F222C398FDE7
:05088F000FD5F0EA2284
:10089400C2D5EC30E709B2D5E4C39DFDE49CFCEE7F
:1008A40030E715B2D5E4C39FFFE49EFE12083FC3B0
:1008B400E49DFDE49CFC800312083F30D507C3E4AB
:0608C4009FFFE49EFE22EE
:100C5000E4FFFE1208CA600C0FEF70010E09E97084
:050C6000F20A80EF2202
:1008CA00BB010689828A83E0225002E722BBFE022C
:0908DA00E32289828A83E493225F
:00000001FF
